{
  "contractName": "Adoption",
  "abi": [
    {
      "inputs": [],
      "stateMutability": "nonpayable",
      "type": "constructor"
    },
    {
      "inputs": [
        {
          "internalType": "uint256",
          "name": "",
          "type": "uint256"
        }
      ],
      "name": "adopters",
      "outputs": [
        {
          "internalType": "address",
          "name": "",
          "type": "address"
        }
      ],
      "stateMutability": "view",
      "type": "function",
      "constant": true
    },
    {
      "inputs": [],
      "name": "owner",
      "outputs": [
        {
          "internalType": "address payable",
          "name": "",
          "type": "address"
        }
      ],
      "stateMutability": "view",
      "type": "function",
      "constant": true
    },
    {
      "stateMutability": "payable",
      "type": "receive",
      "payable": true
    },
    {
      "inputs": [
        {
          "internalType": "uint256",
          "name": "petId",
          "type": "uint256"
        }
      ],
      "name": "adopt",
      "outputs": [
        {
          "internalType": "uint256",
          "name": "",
          "type": "uint256"
        }
      ],
      "stateMutability": "payable",
      "type": "function",
      "payable": true
    },
    {
      "inputs": [
        {
          "internalType": "uint256",
          "name": "petId",
          "type": "uint256"
        },
        {
          "internalType": "uint256",
          "name": "_amount",
          "type": "uint256"
        }
      ],
      "name": "quickSell",
      "outputs": [],
      "stateMutability": "nonpayable",
      "type": "function"
    },
    {
      "inputs": [],
      "name": "getAdopters",
      "outputs": [
        {
          "internalType": "address[20]",
          "name": "",
          "type": "address[20]"
        }
      ],
      "stateMutability": "view",
      "type": "function",
      "constant": true
    },
    {
      "inputs": [
        {
          "internalType": "uint256",
          "name": "_amount",
          "type": "uint256"
        }
      ],
      "name": "withdraw",
      "outputs": [],
      "stateMutability": "nonpayable",
      "type": "function"
    },
    {
      "inputs": [],
      "name": "getBalance",
      "outputs": [
        {
          "internalType": "uint256",
          "name": "",
          "type": "uint256"
        }
      ],
      "stateMutability": "view",
      "type": "function",
      "constant": true
    }
  ],
  "bytecode": "0x608060405234801561001057600080fd5b5033601460006101000a81548173ffffffffffffffffffffffffffffffffffffffff021916908373ffffffffffffffffffffffffffffffffffffffff1602179055506108de806100616000396000f3fe6080604052600436106100745760003560e01c806343ae80d31161004e57806343ae80d3146100ff57806343d5b0601461013c5780638588b2c5146101655780638da5cb5b146101955761007b565b806312065fe0146100805780632e1a7d4d146100ab5780633de4eb17146100d45761007b565b3661007b57005b600080fd5b34801561008c57600080fd5b506100956101c0565b6040516100a29190610578565b60405180910390f35b3480156100b757600080fd5b506100d260048036038101906100cd91906105c4565b6101c8565b005b3480156100e057600080fd5b506100e96102a2565b6040516100f691906106ce565b60405180910390f35b34801561010b57600080fd5b50610126600480360381019061012191906105c4565b610323565b60405161013391906106f9565b60405180910390f35b34801561014857600080fd5b50610163600480360381019061015e9190610714565b610359565b005b61017f600480360381019061017a91906105c4565b61049e565b60405161018c9190610578565b60405180910390f35b3480156101a157600080fd5b506101aa610516565b6040516101b79190610775565b60405180910390f35b600047905090565b601460009054906101000a900473ffffffffffffffffffffffffffffffffffffffff1673ffffffffffffffffffffffffffffffffffffffff163373ffffffffffffffffffffffffffffffffffffffff1614610258576040517f08c379a000000000000000000000000000000000000000000000000000000000815260040161024f906107ed565b60405180910390fd5b3373ffffffffffffffffffffffffffffffffffffffff166108fc829081150290604051600060405180830381858888f1935050505015801561029e573d6000803e3d6000fd5b5050565b6102aa61053c565b6000601480602002604051908101604052809291908260148015610319576020028201915b8160009054906101000a900473ffffffffffffffffffffffffffffffffffffffff1673ffffffffffffffffffffffffffffffffffffffff16815260200190600101908083116102cf575b5050505050905090565b6000816014811061033357600080fd5b016000915054906101000a900473ffffffffffffffffffffffffffffffffffffffff1681565b3373ffffffffffffffffffffffffffffffffffffffff16600083601481106103845761038361080d565b5b0160009054906101000a900473ffffffffffffffffffffffffffffffffffffffff1673ffffffffffffffffffffffffffffffffffffffff16146103fc576040517f08c379a00000000000000000000000000000000000000000000000000000000081526004016103f390610888565b60405180910390fd5b600080600084601481106104135761041261080d565b5b0160006101000a81548173ffffffffffffffffffffffffffffffffffffffff021916908373ffffffffffffffffffffffffffffffffffffffff1602179055503373ffffffffffffffffffffffffffffffffffffffff166108fc839081150290604051600060405180830381858888f19350505050158015610498573d6000803e3d6000fd5b50505050565b60008082101580156104b1575060138211155b6104ba57600080fd5b33600083601481106104cf576104ce61080d565b5b0160006101000a81548173ffffffffffffffffffffffffffffffffffffffff021916908373ffffffffffffffffffffffffffffffffffffffff160217905550819050919050565b601460009054906101000a900473ffffffffffffffffffffffffffffffffffffffff1681565b604051806102800160405280601490602082028036833780820191505090505090565b6000819050919050565b6105728161055f565b82525050565b600060208201905061058d6000830184610569565b92915050565b600080fd5b6105a18161055f565b81146105ac57600080fd5b50565b6000813590506105be81610598565b92915050565b6000602082840312156105da576105d9610593565b5b60006105e8848285016105af565b91505092915050565b600060149050919050565b600081905092915050565b6000819050919050565b600073ffffffffffffffffffffffffffffffffffffffff82169050919050565b600061063c82610611565b9050919050565b61064c81610631565b82525050565b600061065e8383610643565b60208301905092915050565b6000602082019050919050565b610680816105f1565b61068a81846105fc565b925061069582610607565b8060005b838110156106c65781516106ad8782610652565b96506106b88361066a565b925050600181019050610699565b505050505050565b6000610280820190506106e46000830184610677565b92915050565b6106f381610631565b82525050565b600060208201905061070e60008301846106ea565b92915050565b6000806040838503121561072b5761072a610593565b5b6000610739858286016105af565b925050602061074a858286016105af565b9150509250929050565b600061075f82610611565b9050919050565b61076f81610754565b82525050565b600060208201905061078a6000830184610766565b92915050565b600082825260208201905092915050565b7f63616c6c6572206973206e6f74206f776e657200000000000000000000000000600082015250565b60006107d7601383610790565b91506107e2826107a1565b602082019050919050565b60006020820190508181036000830152610806816107ca565b9050919050565b7f4e487b7100000000000000000000000000000000000000000000000000000000600052603260045260246000fd5b7f43616c6c6572206973206e6f7420706574206f776e6572000000000000000000600082015250565b6000610872601783610790565b915061087d8261083c565b602082019050919050565b600060208201905081810360008301526108a181610865565b905091905056fea264697066735822122018b49343834ecde2aa5951c9b15aabefd9110a6b3669f297c6323606a852425064736f6c634300080d0033",
  "immutableReferences": {},
  "source": "pragma solidity ^0.8.0;\n\ncontract Adoption {\n    address[20] public adopters;\n\n    address payable public owner;\n\n    constructor() {\n        owner = payable(msg.sender);\n    }\n\n    receive() external payable {}\n\n    // Adopting a pet\n    function adopt(uint256 petId) public payable returns (uint256) {\n        require(petId >= 0 && petId <= 19);\n\n        adopters[petId] = msg.sender;\n\n        return petId;\n    }\n\n    function quickSell(uint256 petId, uint256 _amount) external {\n        require(adopters[petId] == msg.sender, \"Caller is not pet owner\");\n        address nullAddress;\n        adopters[petId] = nullAddress;\n        payable(msg.sender).transfer(_amount);\n    }\n\n    // Retrieving the adopters\n    function getAdopters() public view returns (address[20] memory) {\n        return adopters;\n    }\n\n    function withdraw(uint256 _amount) external {\n        require(msg.sender == owner, \"caller is not owner\");\n        payable(msg.sender).transfer(_amount);\n    }\n\n    function getBalance() external view returns (uint256) {\n        return address(this).balance;\n    }\n}\n",
  "sourcePath": "/Users/4weerawat/Documents/KMUTT/Blockchain/truffle/pet-shop-tutorial/contracts/Adoption.sol",
  "compiler": {
    "name": "solc",
    "version": "0.8.13+commit.abaa5c0e.Emscripten.clang"
  },
  "schemaVersion": "3.4.6",
  "updatedAt": "2022-05-02T20:35:17.672Z",
  "networkType": "ethereum",
  "devdoc": {
    "kind": "dev",
    "methods": {},
    "version": 1
  },
  "userdoc": {
    "kind": "user",
    "methods": {},
    "version": 1
  }
}